{
  "contractName": "OmoideStorage",
  "abi": [
    {
      "inputs": [
        {
          "internalType": "string",
          "name": "",
          "type": "string"
        }
      ],
      "name": "dataStore",
      "outputs": [
        {
          "internalType": "string",
          "name": "message",
          "type": "string"
        },
        {
          "internalType": "string",
          "name": "profilePic",
          "type": "string"
        },
        {
          "internalType": "bytes32",
          "name": "dataHash",
          "type": "bytes32"
        },
        {
          "internalType": "bytes",
          "name": "dataSignature",
          "type": "bytes"
        }
      ],
      "stateMutability": "view",
      "type": "function"
    },
    {
      "inputs": [
        {
          "internalType": "string",
          "name": "uuid",
          "type": "string"
        },
        {
          "internalType": "string",
          "name": "message",
          "type": "string"
        },
        {
          "internalType": "string",
          "name": "profilePic",
          "type": "string"
        },
        {
          "internalType": "bytes32",
          "name": "dataHash",
          "type": "bytes32"
        },
        {
          "internalType": "bytes",
          "name": "dataSignature",
          "type": "bytes"
        }
      ],
      "name": "storeData",
      "outputs": [],
      "stateMutability": "nonpayable",
      "type": "function"
    },
    {
      "inputs": [
        {
          "internalType": "string",
          "name": "uuid",
          "type": "string"
        }
      ],
      "name": "getData",
      "outputs": [
        {
          "internalType": "string",
          "name": "",
          "type": "string"
        },
        {
          "internalType": "string",
          "name": "",
          "type": "string"
        },
        {
          "internalType": "bytes32",
          "name": "",
          "type": "bytes32"
        },
        {
          "internalType": "bytes",
          "name": "",
          "type": "bytes"
        }
      ],
      "stateMutability": "view",
      "type": "function"
    }
  ],
  "bytecode": "0x608060405234801561001057600080fd5b50610c2a806100206000396000f3fe608060405234801561001057600080fd5b50600436106100415760003560e01c80636a50044114610046578063ae55c88814610079578063ce2d4107146100ac575b600080fd5b610060600480360381019061005b91906107f0565b6100c8565b604051610070949392919061092f565b60405180910390f35b610093600480360381019061008e91906107f0565b6102a6565b6040516100a3949392919061092f565b60405180910390f35b6100c660048036038101906100c19190610a56565b6104bd565b005b60008180516020810182018051848252602083016020850120818352809550505050505060009150905080600001805461010190610b70565b80601f016020809104026020016040519081016040528092919081815260200182805461012d90610b70565b801561017a5780601f1061014f5761010080835404028352916020019161017a565b820191906000526020600020905b81548152906001019060200180831161015d57829003601f168201915b50505050509080600101805461018f90610b70565b80601f01602080910402602001604051908101604052809291908181526020018280546101bb90610b70565b80156102085780601f106101dd57610100808354040283529160200191610208565b820191906000526020600020905b8154815290600101906020018083116101eb57829003601f168201915b50505050509080600201549080600301805461022390610b70565b80601f016020809104026020016040519081016040528092919081815260200182805461024f90610b70565b801561029c5780601f106102715761010080835404028352916020019161029c565b820191906000526020600020905b81548152906001019060200180831161027f57829003601f168201915b5050505050905084565b60608060006060600080866040516102be9190610bdd565b90815260200160405180910390206040518060800160405290816000820180546102e790610b70565b80601f016020809104026020016040519081016040528092919081815260200182805461031390610b70565b80156103605780601f1061033557610100808354040283529160200191610360565b820191906000526020600020905b81548152906001019060200180831161034357829003601f168201915b5050505050815260200160018201805461037990610b70565b80601f01602080910402602001604051908101604052809291908181526020018280546103a590610b70565b80156103f25780601f106103c7576101008083540402835291602001916103f2565b820191906000526020600020905b8154815290600101906020018083116103d557829003601f168201915b505050505081526020016002820154815260200160038201805461041590610b70565b80601f016020809104026020016040519081016040528092919081815260200182805461044190610b70565b801561048e5780601f106104635761010080835404028352916020019161048e565b820191906000526020600020905b81548152906001019060200180831161047157829003601f168201915b505050505081525050905080600001518160200151826040015183606001519450945094509450509193509193565b60006040518060800160405280868152602001858152602001848152602001838152509050806000876040516104f39190610bdd565b9081526020016040518091039020600082015181600001908051906020019061051d92919061056d565b50602082015181600101908051906020019061053a92919061056d565b506040820151816002015560608201518160030190805190602001906105619291906105f3565b50905050505050505050565b82805461057990610b70565b90600052602060002090601f01602090048101928261059b57600085556105e2565b82601f106105b457805160ff19168380011785556105e2565b828001600101855582156105e2579182015b828111156105e15782518255916020019190600101906105c6565b5b5090506105ef9190610679565b5090565b8280546105ff90610b70565b90600052602060002090601f0160209004810192826106215760008555610668565b82601f1061063a57805160ff1916838001178555610668565b82800160010185558215610668579182015b8281111561066757825182559160200191906001019061064c565b5b5090506106759190610679565b5090565b5b8082111561069257600081600090555060010161067a565b5090565b6000604051905090565b600080fd5b600080fd5b600080fd5b600080fd5b6000601f19601f8301169050919050565b7f4e487b7100000000000000000000000000000000000000000000000000000000600052604160045260246000fd5b6106fd826106b4565b810181811067ffffffffffffffff8211171561071c5761071b6106c5565b5b80604052505050565b600061072f610696565b905061073b82826106f4565b919050565b600067ffffffffffffffff82111561075b5761075a6106c5565b5b610764826106b4565b9050602081019050919050565b82818337600083830152505050565b600061079361078e84610740565b610725565b9050828152602081018484840111156107af576107ae6106af565b5b6107ba848285610771565b509392505050565b600082601f8301126107d7576107d66106aa565b5b81356107e7848260208601610780565b91505092915050565b600060208284031215610806576108056106a0565b5b600082013567ffffffffffffffff811115610824576108236106a5565b5b610830848285016107c2565b91505092915050565b600081519050919050565b600082825260208201905092915050565b60005b83811015610873578082015181840152602081019050610858565b83811115610882576000848401525b50505050565b600061089382610839565b61089d8185610844565b93506108ad818560208601610855565b6108b6816106b4565b840191505092915050565b6000819050919050565b6108d4816108c1565b82525050565b600081519050919050565b600082825260208201905092915050565b6000610901826108da565b61090b81856108e5565b935061091b818560208601610855565b610924816106b4565b840191505092915050565b600060808201905081810360008301526109498187610888565b9050818103602083015261095d8186610888565b905061096c60408301856108cb565b818103606083015261097e81846108f6565b905095945050505050565b610992816108c1565b811461099d57600080fd5b50565b6000813590506109af81610989565b92915050565b600067ffffffffffffffff8211156109d0576109cf6106c5565b5b6109d9826106b4565b9050602081019050919050565b60006109f96109f4846109b5565b610725565b905082815260208101848484011115610a1557610a146106af565b5b610a20848285610771565b509392505050565b600082601f830112610a3d57610a3c6106aa565b5b8135610a4d8482602086016109e6565b91505092915050565b600080600080600060a08688031215610a7257610a716106a0565b5b600086013567ffffffffffffffff811115610a9057610a8f6106a5565b5b610a9c888289016107c2565b955050602086013567ffffffffffffffff811115610abd57610abc6106a5565b5b610ac9888289016107c2565b945050604086013567ffffffffffffffff811115610aea57610ae96106a5565b5b610af6888289016107c2565b9350506060610b07888289016109a0565b925050608086013567ffffffffffffffff811115610b2857610b276106a5565b5b610b3488828901610a28565b9150509295509295909350565b7f4e487b7100000000000000000000000000000000000000000000000000000000600052602260045260246000fd5b60006002820490506001821680610b8857607f821691505b602082108103610b9b57610b9a610b41565b5b50919050565b600081905092915050565b6000610bb782610839565b610bc18185610ba1565b9350610bd1818560208601610855565b80840191505092915050565b6000610be98284610bac565b91508190509291505056fea264697066735822122043a58ca872d040de7c4f166257cefca4cfe99fbc287ebb9e32a5cc7fc63ae10464736f6c634300080d0033",
  "immutableReferences": {},
  "source": "// SPDX-License-Identifier: MIT\npragma solidity ^0.8.0;\n\ncontract OmoideStorage {\n    struct Data {\n        string message;\n        string profilePic;\n        bytes32 dataHash;\n        bytes dataSignature;\n    }\n\n    mapping(string => Data) public dataStore;\n\n    function storeData(\n        string memory uuid,\n        string memory message,\n        string memory profilePic,\n        bytes32 dataHash,\n        bytes memory dataSignature\n    ) public {\n        Data memory newData = Data({\n            message: message,\n            profilePic: profilePic,\n            dataHash: dataHash,\n            dataSignature: dataSignature\n        });\n\n        dataStore[uuid] = newData;\n    }\n\n    function getData(string memory uuid) public view returns (string memory, string memory, bytes32, bytes memory) {\n        Data memory data = dataStore[uuid];\n        return (data.message, data.profilePic, data.dataHash, data.dataSignature);\n    }\n}\n",
  "sourcePath": "/home/araki/omoide/truffle/contracts/omoide.sol",
  "compiler": {
    "name": "solc",
    "version": "0.8.13+commit.abaa5c0e.Emscripten.clang"
  },
  "schemaVersion": "3.4.13",
  "updatedAt": "2023-05-12T19:27:20.532Z",
  "devdoc": {
    "kind": "dev",
    "methods": {},
    "version": 1
  },
  "userdoc": {
    "kind": "user",
    "methods": {},
    "version": 1
  }
}